{
  "contractName": "Payable",
  "abi": [
    {
      "constant": false,
      "inputs": [],
      "name": "sendEther",
      "outputs": [],
      "payable": true,
      "stateMutability": "payable",
      "type": "function"
    },
    {
      "constant": false,
      "inputs": [
        {
          "internalType": "uint256",
          "name": "_amount",
          "type": "uint256"
        }
      ],
      "name": "sendEtherAmt",
      "outputs": [],
      "payable": true,
      "stateMutability": "payable",
      "type": "function"
    },
    {
      "constant": true,
      "inputs": [],
      "name": "getBalance",
      "outputs": [
        {
          "internalType": "uint256",
          "name": "",
          "type": "uint256"
        }
      ],
      "payable": false,
      "stateMutability": "view",
      "type": "function"
    },
    {
      "constant": true,
      "inputs": [],
      "name": "getContractBalance",
      "outputs": [
        {
          "internalType": "uint256",
          "name": "",
          "type": "uint256"
        }
      ],
      "payable": false,
      "stateMutability": "view",
      "type": "function"
    },
    {
      "constant": false,
      "inputs": [
        {
          "internalType": "address payable",
          "name": "recipient",
          "type": "address"
        }
      ],
      "name": "transferEthertoContract",
      "outputs": [],
      "payable": true,
      "stateMutability": "payable",
      "type": "function"
    }
  ],
  "bytecode": "0x608060405234801561001057600080fd5b506101cc806100206000396000f3fe60806040526004361061004a5760003560e01c80630e29df221461004f57806312065fe0146100595780636f9fb98a1461008457806375ce5c07146100af578063960a1730146100dd575b600080fd5b610057610121565b005b34801561006557600080fd5b5061006e610123565b6040518082815260200191505060405180910390f35b34801561009057600080fd5b50610099610142565b6040518082815260200191505060405180910390f35b6100db600480360360208110156100c557600080fd5b810190808035906020019092919050505061014a565b005b61011f600480360360208110156100f357600080fd5b81019080803573ffffffffffffffffffffffffffffffffffffffff16906020019092919050505061014d565b005b565b60003373ffffffffffffffffffffffffffffffffffffffff1631905090565b600047905090565b50565b8073ffffffffffffffffffffffffffffffffffffffff166108fc349081150290604051600060405180830381858888f19350505050158015610193573d6000803e3d6000fd5b505056fea265627a7a7231582047f43129acbb1140181f374a0cacc0bcd7a074ef8ce84624a0cee93ccbd2fff064736f6c63430005100032",
  "source": "// SPDX-License-Identifier: GPL-3.0\r\npragma solidity >=0.4.22 <0.9.0;\r\n\r\ncontract Payable{\r\n\r\n            //this function sends ether to a smart contract\r\n            function sendEther() external payable{\r\n            }\r\n\r\n            //this function sends ether to a smart contract\r\n            function sendEtherAmt(uint256 _amount) external payable {\r\n                //require()\r\n               //subtract from the ether balance\r\n               msg.sender.balance - _amount;\r\n               //add the balance to the contract address\r\n               address(this).balance + _amount;\r\n            }\r\n\r\n           //this function gets the balance of the msg.sender\r\n            function getBalance() external view returns (uint256){\r\n                return msg.sender.balance;\r\n            }\r\n\r\n            //this function retrieves the balance of the contract\r\n            function getContractBalance() external view returns (uint256){\r\n                return address(this).balance;\r\n            }\r\n\r\n             //transfering ether from this contract to another address\r\n             function transferEthertoContract(address payable recipient) external payable{\r\n                recipient.transfer(msg.value);\r\n            }\r\n\r\n        //this function retrieves the balance of the contract\r\n        /*function sendEtherAmt2(uint256 _amount) external view returns (uint256){\r\n            uint256 balance;\r\n            msg.sender.balance - _amount;\r\n            balance = address(this).balance + _amount;\r\n            balance += balance;\r\n            return balance;\r\n        }*/\r\n\r\n}\r\n",
  "sourcePath": "C:/Users/Lexis/Documents/truffleProjects/TestProject/contracts/payable.sol",
  "compiler": {
    "name": "solc",
    "version": "0.5.16+commit.9c3226ce.Emscripten.clang"
  },
  "schemaVersion": "3.4.0",
  "updatedAt": "2021-05-10T13:33:06.280Z",
  "networkType": "ethereum",
  "devdoc": {
    "methods": {}
  },
  "userdoc": {
    "methods": {}
  }
}