{
  "contractName": "SimpleStorage",
  "abi": [
    {
      "inputs": [
        {
          "internalType": "uint256",
          "name": "_value",
          "type": "uint256"
        }
      ],
      "payable": false,
      "stateMutability": "nonpayable",
      "type": "constructor"
    },
    {
      "constant": false,
      "inputs": [
        {
          "internalType": "uint256",
          "name": "_value",
          "type": "uint256"
        }
      ],
      "name": "setValue",
      "outputs": [],
      "payable": false,
      "stateMutability": "nonpayable",
      "type": "function"
    },
    {
      "constant": true,
      "inputs": [],
      "name": "getValue",
      "outputs": [
        {
          "internalType": "uint256",
          "name": "",
          "type": "uint256"
        }
      ],
      "payable": false,
      "stateMutability": "view",
      "type": "function"
    }
  ],
  "bytecode": "0x608060405234801561001057600080fd5b506040516101203803806101208339818101604052602081101561003357600080fd5b8101908080519060200190929190505050806000819055505060c68061005a6000396000f3fe6080604052348015600f57600080fd5b506004361060325760003560e01c80632096525514603757806355241077146053575b600080fd5b603d607e565b6040518082815260200191505060405180910390f35b607c60048036036020811015606757600080fd5b81019080803590602001909291905050506087565b005b60008054905090565b806000819055505056fea265627a7a72315820f39ab67e90952fe910f06a5b6e6d031e366053343f0f9b3b9f2d46d9388fb75e64736f6c63430005100032",
  "source": "// SPDX-License-Identifier: GPL-3.0\r\npragma solidity >=0.4.22 <0.9.0;\r\n\r\ncontract SimpleStorage {\r\n\r\n  uint256 private value;\r\n\r\n  constructor (uint256 _value) public{\r\n    value = _value;\r\n  }\r\n\r\n  function setValue(uint256 _value) public {\r\n    value = _value;\r\n  }\r\n\r\n  function getValue() public view returns (uint256){\r\n    return value;\r\n  }\r\n\r\n}\r\n",
  "sourcePath": "C:/Users/Lexis/Documents/truffleProjects/TestProject/contracts/SimpleStorage.sol",
  "compiler": {
    "name": "solc",
    "version": "0.5.16+commit.9c3226ce.Emscripten.clang"
  },
  "schemaVersion": "3.4.0",
  "updatedAt": "2021-05-10T13:33:05.609Z",
  "networkType": "ethereum",
  "devdoc": {
    "methods": {}
  },
  "userdoc": {
    "methods": {}
  }
}