{
  "contractName": "SolidityArrays",
  "abi": [
    {
      "constant": true,
      "inputs": [
        {
          "internalType": "uint256",
          "name": "",
          "type": "uint256"
        }
      ],
      "name": "ids",
      "outputs": [
        {
          "internalType": "uint256",
          "name": "",
          "type": "uint256"
        }
      ],
      "payable": false,
      "stateMutability": "view",
      "type": "function"
    },
    {
      "constant": false,
      "inputs": [
        {
          "internalType": "uint256",
          "name": "_id",
          "type": "uint256"
        }
      ],
      "name": "add",
      "outputs": [],
      "payable": false,
      "stateMutability": "nonpayable",
      "type": "function"
    },
    {
      "constant": true,
      "inputs": [
        {
          "internalType": "uint256",
          "name": "_id",
          "type": "uint256"
        }
      ],
      "name": "get",
      "outputs": [
        {
          "internalType": "uint256",
          "name": "",
          "type": "uint256"
        }
      ],
      "payable": false,
      "stateMutability": "view",
      "type": "function"
    },
    {
      "constant": true,
      "inputs": [],
      "name": "getAll",
      "outputs": [
        {
          "internalType": "uint256[]",
          "name": "",
          "type": "uint256[]"
        }
      ],
      "payable": false,
      "stateMutability": "view",
      "type": "function"
    },
    {
      "constant": true,
      "inputs": [],
      "name": "getLength",
      "outputs": [
        {
          "internalType": "uint256",
          "name": "",
          "type": "uint256"
        }
      ],
      "payable": false,
      "stateMutability": "view",
      "type": "function"
    }
  ],
  "bytecode": "0x608060405234801561001057600080fd5b50610294806100206000396000f3fe608060405234801561001057600080fd5b50600436106100575760003560e01c80631003e2d21461005c57806353ed51431461008a5780639507d39a146100e9578063be1c766b1461012b578063fac333ac14610149575b600080fd5b6100886004803603602081101561007257600080fd5b810190808035906020019092919050505061018b565b005b6100926101ba565b6040518080602001828103825283818151815260200191508051906020019060200280838360005b838110156100d55780820151818401526020810190506100ba565b505050509050019250505060405180910390f35b610115600480360360208110156100ff57600080fd5b8101908080359060200190929190505050610212565b6040518082815260200191505060405180910390f35b610133610232565b6040518082815260200191505060405180910390f35b6101756004803603602081101561015f57600080fd5b810190808035906020019092919050505061023e565b6040518082815260200191505060405180910390f35b600081908060018154018082558091505090600182039060005260206000200160009091929091909150555050565b6060600080548060200260200160405190810160405280929190818152602001828054801561020857602002820191906000526020600020905b8154815260200190600101908083116101f4575b5050505050905090565b600080828154811061022057fe5b90600052602060002001549050919050565b60008080549050905090565b6000818154811061024b57fe5b90600052602060002001600091509050548156fea265627a7a7231582048efbf68e8e49ba50f0decdd373e5ab832332bd8883b88a894428bc827a6924464736f6c63430005100032",
  "source": "// SPDX-License-Identifier: MIT\r\npragma solidity >=0.4.22 <0.9.0;\r\n\r\n\r\ncontract SolidityArrays{\r\n\r\n  uint256[] public ids;\r\n\r\n  function add(uint256 _id) public{\r\n    ids.push(_id);\r\n  }\r\n\r\n  function get(uint256 _id) view public returns(uint256){\r\n    return ids[_id];\r\n  }\r\n\r\n  function getAll() view public returns (uint256[] memory){\r\n      return ids;\r\n  }\r\n\r\n  function getLength() view public returns(uint256){\r\n    return ids.length;\r\n  }\r\n}\r\n",
  "sourcePath": "C:/Users/Lexis/Documents/truffleProjects/TestProject/contracts/SolidityArrays.sol",
  "compiler": {
    "name": "solc",
    "version": "0.5.16+commit.9c3226ce.Emscripten.clang"
  },
  "schemaVersion": "3.4.0",
  "updatedAt": "2021-05-10T13:33:05.949Z",
  "networkType": "ethereum",
  "devdoc": {
    "methods": {}
  },
  "userdoc": {
    "methods": {}
  }
}